{
  "contractName": "ColdChain",
  "abi": [
    {
      "anonymous": false,
      "inputs": [
        {
          "indexed": false,
          "internalType": "address",
          "name": "entityId",
          "type": "address"
        },
        {
          "indexed": false,
          "internalType": "string",
          "name": "entityRole",
          "type": "string"
        }
      ],
      "name": "AddEntity",
      "type": "event"
    },
    {
      "anonymous": false,
      "inputs": [
        {
          "indexed": false,
          "internalType": "uint256",
          "name": "vaccineBatchId",
          "type": "uint256"
        },
        {
          "indexed": true,
          "internalType": "address",
          "name": "manufacturer",
          "type": "address"
        }
      ],
      "name": "AddVaccineBatch",
      "type": "event"
    },
    {
      "anonymous": false,
      "inputs": [
        {
          "indexed": true,
          "internalType": "address",
          "name": "issuer",
          "type": "address"
        },
        {
          "indexed": true,
          "internalType": "address",
          "name": "prover",
          "type": "address"
        },
        {
          "indexed": false,
          "internalType": "uint256",
          "name": "certificateId",
          "type": "uint256"
        }
      ],
      "name": "IssueCertificate",
      "type": "event"
    },
    {
      "inputs": [],
      "name": "MAX_CERTIFICATIONS",
      "outputs": [
        {
          "internalType": "uint256",
          "name": "",
          "type": "uint256"
        }
      ],
      "stateMutability": "view",
      "type": "function",
      "constant": true
    },
    {
      "inputs": [
        {
          "internalType": "uint256",
          "name": "",
          "type": "uint256"
        }
      ],
      "name": "certificateIds",
      "outputs": [
        {
          "internalType": "uint256",
          "name": "",
          "type": "uint256"
        }
      ],
      "stateMutability": "view",
      "type": "function",
      "constant": true
    },
    {
      "inputs": [
        {
          "internalType": "uint256",
          "name": "",
          "type": "uint256"
        }
      ],
      "name": "certificates",
      "outputs": [
        {
          "internalType": "uint256",
          "name": "id",
          "type": "uint256"
        },
        {
          "components": [
            {
              "internalType": "address",
              "name": "id",
              "type": "address"
            },
            {
              "internalType": "enum ColdChain.Role",
              "name": "role",
              "type": "uint8"
            },
            {
              "internalType": "uint256[]",
              "name": "certificateIds",
              "type": "uint256[]"
            }
          ],
          "internalType": "struct ColdChain.Entity",
          "name": "issuer",
          "type": "tuple"
        },
        {
          "components": [
            {
              "internalType": "address",
              "name": "id",
              "type": "address"
            },
            {
              "internalType": "enum ColdChain.Role",
              "name": "role",
              "type": "uint8"
            },
            {
              "internalType": "uint256[]",
              "name": "certificateIds",
              "type": "uint256[]"
            }
          ],
          "internalType": "struct ColdChain.Entity",
          "name": "prover",
          "type": "tuple"
        },
        {
          "internalType": "bytes",
          "name": "signature",
          "type": "bytes"
        },
        {
          "internalType": "enum ColdChain.certificateStatus",
          "name": "status",
          "type": "uint8"
        }
      ],
      "stateMutability": "view",
      "type": "function",
      "constant": true
    },
    {
      "inputs": [
        {
          "internalType": "address",
          "name": "",
          "type": "address"
        }
      ],
      "name": "entities",
      "outputs": [
        {
          "internalType": "address",
          "name": "id",
          "type": "address"
        },
        {
          "internalType": "enum ColdChain.Role",
          "name": "role",
          "type": "uint8"
        }
      ],
      "stateMutability": "view",
      "type": "function",
      "constant": true
    },
    {
      "inputs": [
        {
          "internalType": "uint256",
          "name": "",
          "type": "uint256"
        }
      ],
      "name": "vaccineBatchIds",
      "outputs": [
        {
          "internalType": "uint256",
          "name": "",
          "type": "uint256"
        }
      ],
      "stateMutability": "view",
      "type": "function",
      "constant": true
    },
    {
      "inputs": [
        {
          "internalType": "uint256",
          "name": "",
          "type": "uint256"
        }
      ],
      "name": "vaccineBatchs",
      "outputs": [
        {
          "internalType": "uint256",
          "name": "id",
          "type": "uint256"
        },
        {
          "internalType": "string",
          "name": "brand",
          "type": "string"
        },
        {
          "internalType": "address",
          "name": "manufacturer",
          "type": "address"
        }
      ],
      "stateMutability": "view",
      "type": "function",
      "constant": true
    },
    {
      "inputs": [
        {
          "internalType": "address",
          "name": "_id",
          "type": "address"
        },
        {
          "internalType": "string",
          "name": "_role",
          "type": "string"
        }
      ],
      "name": "addEntity",
      "outputs": [],
      "stateMutability": "nonpayable",
      "type": "function"
    },
    {
      "inputs": [
        {
          "internalType": "string",
          "name": "brand",
          "type": "string"
        },
        {
          "internalType": "address",
          "name": "manufacturer",
          "type": "address"
        }
      ],
      "name": "addVaccineBatch",
      "outputs": [
        {
          "internalType": "uint256",
          "name": "",
          "type": "uint256"
        }
      ],
      "stateMutability": "nonpayable",
      "type": "function"
    },
    {
      "inputs": [
        {
          "internalType": "address",
          "name": "_issuer",
          "type": "address"
        },
        {
          "internalType": "address",
          "name": "_prover",
          "type": "address"
        },
        {
          "internalType": "string",
          "name": "_status",
          "type": "string"
        },
        {
          "internalType": "uint256",
          "name": "vaccineBatchId",
          "type": "uint256"
        },
        {
          "internalType": "bytes",
          "name": "signature",
          "type": "bytes"
        }
      ],
      "name": "issueCertificate",
      "outputs": [
        {
          "internalType": "uint256",
          "name": "",
          "type": "uint256"
        }
      ],
      "stateMutability": "nonpayable",
      "type": "function"
    },
    {
      "inputs": [
        {
          "internalType": "bytes32",
          "name": "message",
          "type": "bytes32"
        },
        {
          "internalType": "uint256",
          "name": "id",
          "type": "uint256"
        },
        {
          "internalType": "address",
          "name": "issuer",
          "type": "address"
        }
      ],
      "name": "isMatchingSignature",
      "outputs": [
        {
          "internalType": "bool",
          "name": "",
          "type": "bool"
        }
      ],
      "stateMutability": "view",
      "type": "function",
      "constant": true
    }
  ],
  "bytecode": "0x608060405234801561001057600080fd5b506129be806100206000396000f3fe608060405234801561001057600080fd5b506004361061009e5760003560e01c80637aefaf39116100665780637aefaf39146101865780637dcd95ab146101b6578063b5bad46d146101e8578063c8d8184b14610204578063fc79b0a9146102345761009e565b80630f9c774d146100a35780631d8ee48a146100d357806345194c07146101045780634851a01d14610134578063663b3e2214610152575b600080fd5b6100bd60048036038101906100b89190611778565b610264565b6040516100ca91906117b4565b60405180910390f35b6100ed60048036038101906100e8919061182d565b610288565b6040516100fb9291906118e0565b60405180910390f35b61011e6004803603810190610119919061193f565b6102d9565b60405161012b91906119ad565b60405180910390f35b61013c610661565b60405161014991906117b4565b60405180910390f35b61016c60048036038101906101679190611778565b610666565b60405161017d959493929190611bcc565b60405180910390f35b6101a0600480360381019061019b9190611778565b610917565b6040516101ad91906117b4565b60405180910390f35b6101d060048036038101906101cb9190611778565b61093b565b6040516101df93929190611c89565b60405180910390f35b61020260048036038101906101fd9190611dfc565b610a0d565b005b61021e60048036038101906102199190611ef9565b610bca565b60405161022b91906117b4565b60405180910390f35b61024e60048036038101906102499190611fac565b611170565b60405161025b91906117b4565b60405180910390f35b6000818154811061027457600080fd5b906000526020600020016000915090505481565b60046020528060005260406000206000915090508060000160009054906101000a900473ffffffffffffffffffffffffffffffffffffffff16908060000160149054906101000a900460ff16905082565b600080600360008581526020019081526020016000206040518060a001604052908160008201548152602001600182016040518060600160405290816000820160009054906101000a900473ffffffffffffffffffffffffffffffffffffffff1673ffffffffffffffffffffffffffffffffffffffff1673ffffffffffffffffffffffffffffffffffffffff1681526020016000820160149054906101000a900460ff16600281111561038f5761038e611869565b5b60028111156103a1576103a0611869565b5b8152602001600182018054806020026020016040519081016040528092919081815260200182805480156103f457602002820191906000526020600020905b8154815260200190600101908083116103e0575b5050505050815250508152602001600382016040518060600160405290816000820160009054906101000a900473ffffffffffffffffffffffffffffffffffffffff1673ffffffffffffffffffffffffffffffffffffffff1673ffffffffffffffffffffffffffffffffffffffff1681526020016000820160149054906101000a900460ff16600281111561048c5761048b611869565b5b600281111561049e5761049d611869565b5b8152602001600182018054806020026020016040519081016040528092919081815260200182805480156104f157602002820191906000526020600020905b8154815260200190600101908083116104dd575b505050505081525050815260200160058201805461050e90612037565b80601f016020809104026020016040519081016040528092919081815260200182805461053a90612037565b80156105875780601f1061055c57610100808354040283529160200191610587565b820191906000526020600020905b81548152906001019060200180831161056a57829003601f168201915b505050505081526020016006820160009054906101000a900460ff1660048111156105b5576105b4611869565b5b60048111156105c7576105c6611869565b5b8152505090508273ffffffffffffffffffffffffffffffffffffffff1681602001516000015173ffffffffffffffffffffffffffffffffffffffff161461060d57600080fd5b600061061d868360600151611326565b905081602001516000015173ffffffffffffffffffffffffffffffffffffffff168173ffffffffffffffffffffffffffffffffffffffff1614925050509392505050565b600281565b6003602052806000526040600020600091509050806000015490806001016040518060600160405290816000820160009054906101000a900473ffffffffffffffffffffffffffffffffffffffff1673ffffffffffffffffffffffffffffffffffffffff1673ffffffffffffffffffffffffffffffffffffffff1681526020016000820160149054906101000a900460ff16600281111561070a57610709611869565b5b600281111561071c5761071b611869565b5b81526020016001820180548060200260200160405190810160405280929190818152602001828054801561076f57602002820191906000526020600020905b81548152602001906001019080831161075b575b50505050508152505090806003016040518060600160405290816000820160009054906101000a900473ffffffffffffffffffffffffffffffffffffffff1673ffffffffffffffffffffffffffffffffffffffff1673ffffffffffffffffffffffffffffffffffffffff1681526020016000820160149054906101000a900460ff16600281111561080357610802611869565b5b600281111561081557610814611869565b5b81526020016001820180548060200260200160405190810160405280929190818152602001828054801561086857602002820191906000526020600020905b815481526020019060010190808311610854575b5050505050815250509080600501805461088190612037565b80601f01602080910402602001604051908101604052809291908181526020018280546108ad90612037565b80156108fa5780601f106108cf576101008083540402835291602001916108fa565b820191906000526020600020905b8154815290600101906020018083116108dd57829003601f168201915b5050505050908060060160009054906101000a900460ff16905085565b6001818154811061092757600080fd5b906000526020600020016000915090505481565b600260205280600052604060002060009150905080600001549080600101805461096490612037565b80601f016020809104026020016040519081016040528092919081815260200182805461099090612037565b80156109dd5780601f106109b2576101008083540402835291602001916109dd565b820191906000526020600020905b8154815290600101906020018083116109c057829003601f168201915b5050505050908060020160009054906101000a900473ffffffffffffffffffffffffffffffffffffffff16905083565b6000610a18826113fe565b90506000600267ffffffffffffffff811115610a3757610a36611cd1565b5b604051908082528060200260200182016040528015610a655781602001602082028036833780820191505090505b509050600060405180606001604052808673ffffffffffffffffffffffffffffffffffffffff168152602001846002811115610aa457610aa3611869565b5b815260200183815250905080600460008773ffffffffffffffffffffffffffffffffffffffff1673ffffffffffffffffffffffffffffffffffffffff16815260200190815260200160002060008201518160000160006101000a81548173ffffffffffffffffffffffffffffffffffffffff021916908373ffffffffffffffffffffffffffffffffffffffff16021790555060208201518160000160146101000a81548160ff02191690836002811115610b6157610b60611869565b5b02179055506040820151816001019080519060200190610b829291906116c4565b509050507ff5a37da00f0e4029ee2682b1919ee55d7e6f9d7492237aad9bd1aea7d53d4874816000015185604051610bbb929190612068565b60405180910390a15050505050565b600080600460008873ffffffffffffffffffffffffffffffffffffffff1673ffffffffffffffffffffffffffffffffffffffff1681526020019081526020016000206040518060600160405290816000820160009054906101000a900473ffffffffffffffffffffffffffffffffffffffff1673ffffffffffffffffffffffffffffffffffffffff1673ffffffffffffffffffffffffffffffffffffffff1681526020016000820160149054906101000a900460ff166002811115610c9257610c91611869565b5b6002811115610ca457610ca3611869565b5b815260200160018201805480602002602001604051908101604052809291908181526020018280548015610cf757602002820191906000526020600020905b815481526020019060010190808311610ce3575b505050505081525050905060006002811115610d1657610d15611869565b5b81602001516002811115610d2d57610d2c611869565b5b14610d3757600080fd5b6000600460008873ffffffffffffffffffffffffffffffffffffffff1673ffffffffffffffffffffffffffffffffffffffff1681526020019081526020016000206040518060600160405290816000820160009054906101000a900473ffffffffffffffffffffffffffffffffffffffff1673ffffffffffffffffffffffffffffffffffffffff1673ffffffffffffffffffffffffffffffffffffffff1681526020016000820160149054906101000a900460ff166002811115610dfe57610dfd611869565b5b6002811115610e1057610e0f611869565b5b815260200160018201805480602002602001604051908101604052809291908181526020018280548015610e6357602002820191906000526020600020905b815481526020019060010190808311610e4f575b5050505050815250509050600280811115610e8157610e80611869565b5b81602001516002811115610e9857610e97611869565b5b14610ea257600080fd5b6000610ead876114eb565b905060008080549050905060006040518060a00160405280838152602001868152602001858152602001888152602001846004811115610ef057610eef611869565b5b815250905060008080549050908060018154018082558091505060019003906000526020600020016000909190919091505580600360006001600080549050610f3991906120c7565b81526020019081526020016000206000820151816000015560208201518160010160008201518160000160006101000a81548173ffffffffffffffffffffffffffffffffffffffff021916908373ffffffffffffffffffffffffffffffffffffffff16021790555060208201518160000160146101000a81548160ff02191690836002811115610fcc57610fcb611869565b5b02179055506040820151816001019080519060200190610fed9291906116c4565b50505060408201518160030160008201518160000160006101000a81548173ffffffffffffffffffffffffffffffffffffffff021916908373ffffffffffffffffffffffffffffffffffffffff16021790555060208201518160000160146101000a81548160ff0219169083600281111561106b5761106a611869565b5b0217905550604082015181600101908051906020019061108c9291906116c4565b50505060608201518160050190816110a491906122a7565b5060808201518160060160006101000a81548160ff021916908360048111156110d0576110cf611869565b5b02179055509050508973ffffffffffffffffffffffffffffffffffffffff168b73ffffffffffffffffffffffffffffffffffffffff167fc9e3e855764ebb21ed83dcdf8ed5e1398c752d6446308e092c28a84a77a199bd600160008054905061113991906120c7565b60405161114691906117b4565b60405180910390a3600160008054905061116091906120c7565b9550505050505095945050505050565b600080600267ffffffffffffffff81111561118e5761118d611cd1565b5b6040519080825280602002602001820160405280156111bc5781602001602082028036833780820191505090505b50905060006001805490509050600060405180608001604052808381526020018781526020018673ffffffffffffffffffffffffffffffffffffffff168152602001848152509050806002600084815260200190815260200160002060008201518160000155602082015181600101908161123791906123d4565b5060408201518160020160006101000a81548173ffffffffffffffffffffffffffffffffffffffff021916908373ffffffffffffffffffffffffffffffffffffffff160217905550606082015181600301908051906020019061129b9291906116c4565b5090505060018290806001815401808255809150506001900390600052602060002001600090919091909150558473ffffffffffffffffffffffffffffffffffffffff167fe85391abb5e51659c581dd95107048251657ee66755655cc08c9c0ec3a0a9139826000015160405161131291906117b4565b60405180910390a281935050505092915050565b60008060008061133585611692565b92509250925060006040518060400160405280601c81526020017f19457468657265756d205369676e6564204d6573736167653a0a33320000000081525090506000818860405160200161138a929190612503565b604051602081830303815290604052805190602001209050600181868686604051600081526020016040526040516113c59493929190612556565b6020604051602081039080840390855afa1580156113e7573d6000803e3d6000fd5b505050602060405103519550505050505092915050565b6000808260405160200161141291906125d7565b604051602081830303815290604052805190602001209050600060405160200161143b9061263a565b60405160208183030381529060405280519060200120905060006040516020016114649061269b565b604051602081830303815290604052805190602001209050600060405160200161148d906126fc565b6040516020818303038152906040528051906020012090508284036114b95760009450505050506114e6565b8184036114cd5760029450505050506114e6565b8084036114e15760019450505050506114e6565b505050505b919050565b600080826040516020016114ff91906125d7565b60405160208183030381529060405280519060200120905060006040516020016115289061275d565b6040516020818303038152906040528051906020012090506000604051602001611551906127be565b604051602081830303815290604052805190602001209050600060405160200161157a9061281f565b60405160208183030381529060405280519060200120905060006040516020016115a390612880565b60405160208183030381529060405280519060200120905060006040516020016115cc906128e1565b6040516020818303038152906040528051906020012090508486036115fa576000965050505050505061168d565b838603611610576001965050505050505061168d565b828603611626576002965050505050505061168d565b81860361163c576003965050505050505061168d565b808603611652576004965050505050505061168d565b6040517f08c379a000000000000000000000000000000000000000000000000000000000815260040161168490612968565b60405180910390fd5b919050565b600080600060418451146116a557600080fd5b6020840151915060408401519050606084015160001a92509193909250565b828054828255906000526020600020908101928215611700579160200282015b828111156116ff5782518255916020019190600101906116e4565b5b50905061170d9190611711565b5090565b5b8082111561172a576000816000905550600101611712565b5090565b6000604051905090565b600080fd5b600080fd5b6000819050919050565b61175581611742565b811461176057600080fd5b50565b6000813590506117728161174c565b92915050565b60006020828403121561178e5761178d611738565b5b600061179c84828501611763565b91505092915050565b6117ae81611742565b82525050565b60006020820190506117c960008301846117a5565b92915050565b600073ffffffffffffffffffffffffffffffffffffffff82169050919050565b60006117fa826117cf565b9050919050565b61180a816117ef565b811461181557600080fd5b50565b60008135905061182781611801565b92915050565b60006020828403121561184357611842611738565b5b600061185184828501611818565b91505092915050565b611863816117ef565b82525050565b7f4e487b7100000000000000000000000000000000000000000000000000000000600052602160045260246000fd5b600381106118a9576118a8611869565b5b50565b60008190506118ba82611898565b919050565b60006118ca826118ac565b9050919050565b6118da816118bf565b82525050565b60006040820190506118f5600083018561185a565b61190260208301846118d1565b9392505050565b6000819050919050565b61191c81611909565b811461192757600080fd5b50565b60008135905061193981611913565b92915050565b60008060006060848603121561195857611957611738565b5b60006119668682870161192a565b935050602061197786828701611763565b925050604061198886828701611818565b9150509250925092565b60008115159050919050565b6119a781611992565b82525050565b60006020820190506119c2600083018461199e565b92915050565b6119d1816117ef565b82525050565b6119e0816118bf565b82525050565b600081519050919050565b600082825260208201905092915050565b6000819050602082019050919050565b611a1b81611742565b82525050565b6000611a2d8383611a12565b60208301905092915050565b6000602082019050919050565b6000611a51826119e6565b611a5b81856119f1565b9350611a6683611a02565b8060005b83811015611a97578151611a7e8882611a21565b9750611a8983611a39565b925050600181019050611a6a565b5085935050505092915050565b6000606083016000830151611abc60008601826119c8565b506020830151611acf60208601826119d7565b5060408301518482036040860152611ae78282611a46565b9150508091505092915050565b600081519050919050565b600082825260208201905092915050565b60005b83811015611b2e578082015181840152602081019050611b13565b60008484015250505050565b6000601f19601f8301169050919050565b6000611b5682611af4565b611b608185611aff565b9350611b70818560208601611b10565b611b7981611b3a565b840191505092915050565b60058110611b9557611b94611869565b5b50565b6000819050611ba682611b84565b919050565b6000611bb682611b98565b9050919050565b611bc681611bab565b82525050565b600060a082019050611be160008301886117a5565b8181036020830152611bf38187611aa4565b90508181036040830152611c078186611aa4565b90508181036060830152611c1b8185611b4b565b9050611c2a6080830184611bbd565b9695505050505050565b600081519050919050565b600082825260208201905092915050565b6000611c5b82611c34565b611c658185611c3f565b9350611c75818560208601611b10565b611c7e81611b3a565b840191505092915050565b6000606082019050611c9e60008301866117a5565b8181036020830152611cb08185611c50565b9050611cbf604083018461185a565b949350505050565b600080fd5b600080fd5b7f4e487b7100000000000000000000000000000000000000000000000000000000600052604160045260246000fd5b611d0982611b3a565b810181811067ffffffffffffffff82111715611d2857611d27611cd1565b5b80604052505050565b6000611d3b61172e565b9050611d478282611d00565b919050565b600067ffffffffffffffff821115611d6757611d66611cd1565b5b611d7082611b3a565b9050602081019050919050565b82818337600083830152505050565b6000611d9f611d9a84611d4c565b611d31565b905082815260208101848484011115611dbb57611dba611ccc565b5b611dc6848285611d7d565b509392505050565b600082601f830112611de357611de2611cc7565b5b8135611df3848260208601611d8c565b91505092915050565b60008060408385031215611e1357611e12611738565b5b6000611e2185828601611818565b925050602083013567ffffffffffffffff811115611e4257611e4161173d565b5b611e4e85828601611dce565b9150509250929050565b600067ffffffffffffffff821115611e7357611e72611cd1565b5b611e7c82611b3a565b9050602081019050919050565b6000611e9c611e9784611e58565b611d31565b905082815260208101848484011115611eb857611eb7611ccc565b5b611ec3848285611d7d565b509392505050565b600082601f830112611ee057611edf611cc7565b5b8135611ef0848260208601611e89565b91505092915050565b600080600080600060a08688031215611f1557611f14611738565b5b6000611f2388828901611818565b9550506020611f3488828901611818565b945050604086013567ffffffffffffffff811115611f5557611f5461173d565b5b611f6188828901611dce565b9350506060611f7288828901611763565b925050608086013567ffffffffffffffff811115611f9357611f9261173d565b5b611f9f88828901611ecb565b9150509295509295909350565b60008060408385031215611fc357611fc2611738565b5b600083013567ffffffffffffffff811115611fe157611fe061173d565b5b611fed85828601611dce565b9250506020611ffe85828601611818565b9150509250929050565b7f4e487b7100000000000000000000000000000000000000000000000000000000600052602260045260246000fd5b6000600282049050600182168061204f57607f821691505b60208210810361206257612061612008565b5b50919050565b600060408201905061207d600083018561185a565b818103602083015261208f8184611c50565b90509392505050565b7f4e487b7100000000000000000000000000000000000000000000000000000000600052601160045260246000fd5b60006120d282611742565b91506120dd83611742565b92508282039050818111156120f5576120f4612098565b5b92915050565b60008190508160005260206000209050919050565b60006020601f8301049050919050565b600082821b905092915050565b60006008830261215d7fffffffffffffffffffffffffffffffffffffffffffffffffffffffffffffffff82612120565b6121678683612120565b95508019841693508086168417925050509392505050565b6000819050919050565b60006121a461219f61219a84611742565b61217f565b611742565b9050919050565b6000819050919050565b6121be83612189565b6121d26121ca826121ab565b84845461212d565b825550505050565b600090565b6121e76121da565b6121f28184846121b5565b505050565b5b818110156122165761220b6000826121df565b6001810190506121f8565b5050565b601f82111561225b5761222c816120fb565b61223584612110565b81016020851015612244578190505b61225861225085612110565b8301826121f7565b50505b505050565b600082821c905092915050565b600061227e60001984600802612260565b1980831691505092915050565b6000612297838361226d565b9150826002028217905092915050565b6122b082611af4565b67ffffffffffffffff8111156122c9576122c8611cd1565b5b6122d38254612037565b6122de82828561221a565b600060209050601f83116001811461231157600084156122ff578287015190505b612309858261228b565b865550612371565b601f19841661231f866120fb565b60005b8281101561234757848901518255600182019150602085019450602081019050612322565b868310156123645784890151612360601f89168261226d565b8355505b6001600288020188555050505b505050505050565b60008190508160005260206000209050919050565b601f8211156123cf576123a081612379565b6123a984612110565b810160208510156123b8578190505b6123cc6123c485612110565b8301826121f7565b50505b505050565b6123dd82611c34565b67ffffffffffffffff8111156123f6576123f5611cd1565b5b6124008254612037565b61240b82828561238e565b600060209050601f83116001811461243e576000841561242c578287015190505b612436858261228b565b86555061249e565b601f19841661244c86612379565b60005b828110156124745784890151825560018201915060208501945060208101905061244f565b86831015612491578489015161248d601f89168261226d565b8355505b6001600288020188555050505b505050505050565b600081905092915050565b60006124bc82611af4565b6124c681856124a6565b93506124d6818560208601611b10565b80840191505092915050565b6000819050919050565b6124fd6124f882611909565b6124e2565b82525050565b600061250f82856124b1565b915061251b82846124ec565b6020820191508190509392505050565b61253481611909565b82525050565b600060ff82169050919050565b6125508161253a565b82525050565b600060808201905061256b600083018761252b565b6125786020830186612547565b612585604083018561252b565b612592606083018461252b565b95945050505050565b600081905092915050565b60006125b182611c34565b6125bb818561259b565b93506125cb818560208601611b10565b80840191505092915050565b60006125e382846125a6565b915081905092915050565b7f4953535545520000000000000000000000000000000000000000000000000000600082015250565b600061262460068361259b565b915061262f826125ee565b600682019050919050565b600061264582612617565b9150819050919050565b7f50524f5645520000000000000000000000000000000000000000000000000000600082015250565b600061268560068361259b565b91506126908261264f565b600682019050919050565b60006126a682612678565b9150819050919050565b7f5645524946494552000000000000000000000000000000000000000000000000600082015250565b60006126e660088361259b565b91506126f1826126b0565b600882019050919050565b6000612707826126d9565b9150819050919050565b7f4d414e5546414354555245440000000000000000000000000000000000000000600082015250565b6000612747600c8361259b565b915061275282612711565b600c82019050919050565b60006127688261273a565b9150819050919050565b7f44454c4552494e475f494e5445524e4154494f4e414c00000000000000000000600082015250565b60006127a860168361259b565b91506127b382612772565b601682019050919050565b60006127c98261279b565b9150819050919050565b7f53544f5245440000000000000000000000000000000000000000000000000000600082015250565b600061280960068361259b565b9150612814826127d3565b600682019050919050565b600061282a826127fc565b9150819050919050565b7f44454c4552494e475f4c4f43414c000000000000000000000000000000000000600082015250565b600061286a600e8361259b565b915061287582612834565b600e82019050919050565b600061288b8261285d565b9150819050919050565b7f44454c4956455245440000000000000000000000000000000000000000000000600082015250565b60006128cb60098361259b565b91506128d682612895565b600982019050919050565b60006128ec826128be565b9150819050919050565b7f526563656976656420496e76616c69642043657274696669636174652053746160008201527f7475730000000000000000000000000000000000000000000000000000000000602082015250565b6000612952602383611c3f565b915061295d826128f6565b604082019050919050565b6000602082019050818103600083015261298181612945565b905091905056fea2646970667358221220a9d31de90893d56a3f6f12abf6dbac26a8becc00b1c7ead2dde10183f272980b64736f6c63430008110033",
  "immutableReferences": {},
  "source": "//SPDX-License-Identifier: UNLICENSED\r\npragma solidity >=0.7.0 <0.9.0;\r\nlibrary CryptoSuite {\r\n    function splitSignature(bytes memory sig) internal pure returns(uint8 v, bytes32 r, bytes32 s) {\r\n        require(sig.length == 65);\r\n        assembly {\r\n             // first 32bytes\r\n             r := mload(add(sig, 32))\r\n             // next 32bytes\r\n             s := mload(add(sig, 64))\r\n             // last 32bytes\r\n             v := byte(0, mload(add(sig, 96)))\r\n        }\r\n        return (v, r, s);\r\n    }\r\n    function recoverSigner(bytes32 message, bytes memory sig) internal pure returns (address) {\r\n        (uint8 v, bytes32 r, bytes32 s) = splitSignature(sig);\r\n        bytes memory prefix = \"\\x19Ethereum Signed Message:\\n32\";\r\n        bytes32 prefixedHash = keccak256(abi.encodePacked(prefix,message));\r\n        return ecrecover(prefixedHash,v,r,s);\r\n    }\r\n}\r\n\r\ncontract ColdChain {\r\n    enum certificateStatus { MANUFACTURED, DELERING_INTERNATIONAL, STORED, DELERING_LOCAL, DELIVERED }\r\n\r\n    enum Role { ISSUER, VERIFIER, PROVER }\r\n\r\n    struct Entity {\r\n        address id;\r\n        Role role;\r\n        uint[] certificateIds;\r\n    }\r\n\r\n    struct Certificate {\r\n        uint id;\r\n        Entity issuer;\r\n        Entity prover;\r\n        bytes signature;\r\n        certificateStatus status;\r\n    }\r\n\r\n    struct VaccineBatch {\r\n        uint id;\r\n        string brand;\r\n        address manufacturer;\r\n        uint[] certificateIds;\r\n    }\r\n    uint public constant MAX_CERTIFICATIONS = 2;\r\n\r\n    uint[] public certificateIds;\r\n    uint[] public vaccineBatchIds;\r\n\r\n    mapping( uint => VaccineBatch ) public vaccineBatchs;\r\n    mapping( uint => Certificate) public certificates;\r\n    mapping( address => Entity) public entities;\r\n\r\n    event AddEntity ( address entityId, string entityRole);\r\n    event AddVaccineBatch ( uint vaccineBatchId, address indexed manufacturer );\r\n    event IssueCertificate ( address indexed issuer, address indexed prover, uint certificateId );\r\n\r\n\r\n    function addEntity(address _id , string memory _role) public {\r\n        Role role = unmarshalMode(_role);\r\n        uint[] memory _certificateIds = new uint[](MAX_CERTIFICATIONS);\r\n        Entity memory entity = Entity(_id, role,_certificateIds);\r\n        entities[_id] = entity;\r\n        emit AddEntity(entity.id,_role);\r\n    }\r\n\r\n    function unmarshalMode(string memory _role) private pure returns (Role){\r\n        bytes32 encodedMode = keccak256(abi.encodePacked(_role));\r\n        bytes32 encodedMode0 = keccak256(abi.encodePacked(\"ISSUER\"));\r\n        bytes32 encodedMode1 = keccak256(abi.encodePacked(\"PROVER\"));\r\n        bytes32 encodedMode2 = keccak256(abi.encodePacked(\"VERIFIER\"));\r\n        if(encodedMode == encodedMode0) {\r\n            return Role.ISSUER;\r\n        }\r\n        else if(encodedMode == encodedMode1) {\r\n            return Role.PROVER;\r\n        }\r\n        else if(encodedMode == encodedMode2) {\r\n            return Role.VERIFIER;\r\n        }\r\n    }\r\n\r\n    /////////////////////////////////////////////////////////////////////////////////\r\n\r\n    function addVaccineBatch(string memory brand, address manufacturer ) public returns (uint) {\r\n        uint[] memory _certificateIds = new uint[](MAX_CERTIFICATIONS);\r\n        uint id = vaccineBatchIds.length;\r\n        VaccineBatch memory batch = VaccineBatch(id,brand,manufacturer,_certificateIds);\r\n        vaccineBatchs[id] = batch;\r\n        vaccineBatchIds.push(id);\r\n        emit AddVaccineBatch(batch.id,manufacturer);\r\n        return id;\r\n    }\r\n\r\n    ////////////////////////////////////////////////////////////////////////////////\r\n\r\n    function issueCertificate(address _issuer, address _prover, string memory _status, \r\n            uint vaccineBatchId, bytes memory signature) public returns (uint){\r\n        Entity memory issuer = entities[_issuer];\r\n        require(issuer.role == Role.ISSUER);\r\n\r\n        Entity memory prover = entities[_prover];\r\n        require (prover.role == Role.PROVER);\r\n\r\n        certificateStatus status = unmarshalStatus(_status);\r\n\r\n        uint id = certificateIds.length;\r\n        Certificate memory certificate = Certificate(id,issuer,prover,signature,status);\r\n        certificateIds.push(certificateIds.length);\r\n        certificates[certificateIds.length-1] = certificate;\r\n        emit IssueCertificate(_issuer,_prover,certificateIds.length-1);\r\n        return certificateIds.length-1;\r\n    } \r\n\r\n    function unmarshalStatus(string memory _status) private pure returns (certificateStatus){\r\n        bytes32 encodedStatus = keccak256(abi.encodePacked(_status));\r\n        bytes32 encodedStatus0 = keccak256(abi.encodePacked(\"MANUFACTURED\"));\r\n        bytes32 encodedStatus1 = keccak256(abi.encodePacked(\"DELERING_INTERNATIONAL\"));\r\n        bytes32 encodedStatus2 = keccak256(abi.encodePacked(\"STORED\"));\r\n        bytes32 encodedStatus3 = keccak256(abi.encodePacked(\"DELERING_LOCAL\"));\r\n        bytes32 encodedStatus4 = keccak256(abi.encodePacked(\"DELIVERED\"));\r\n        \r\n        if(encodedStatus == encodedStatus0) {\r\n            return certificateStatus.MANUFACTURED;\r\n        }\r\n        else if(encodedStatus == encodedStatus1) {\r\n            return certificateStatus.DELERING_INTERNATIONAL;\r\n        }\r\n        else if(encodedStatus == encodedStatus2) {\r\n            return certificateStatus.STORED;\r\n        }\r\n        else if(encodedStatus == encodedStatus3) {\r\n            return certificateStatus.DELERING_LOCAL;\r\n        }\r\n        else if(encodedStatus == encodedStatus4) {\r\n            return certificateStatus.DELIVERED;\r\n        }\r\n        revert(\"Received Invalid Certificate Status\");\r\n\r\n    }\r\n\r\n    /////////////////////////////////////////////////////////////////////////\r\n\r\n    function isMatchingSignature(bytes32 message, uint id, address issuer) public view returns (bool){\r\n        Certificate memory cert = certificates[id];\r\n        require(cert.issuer.id == issuer);\r\n        address recoveredSigner = CryptoSuite.recoverSigner(message,cert.signature);\r\n        return recoveredSigner == cert.issuer.id;\r\n    }\r\n\r\n\r\n\r\n\r\n\r\n\r\n\r\n    \r\n\r\n}",
  "sourcePath": "C:\\Users\\arpan\\Desktop\\ColdChain\\contracts\\ColdChain.sol",
  "compiler": {
    "name": "solc",
    "version": "0.8.17+commit.8df45f5f.Emscripten.clang"
  },
  "schemaVersion": "3.4.10",
  "updatedAt": "2022-10-30T12:09:01.781Z",
  "networkType": "ethereum",
  "devdoc": {
    "kind": "dev",
    "methods": {},
    "version": 1
  },
  "userdoc": {
    "kind": "user",
    "methods": {},
    "version": 1
  }
}